{
  "_format": "hh-sol-artifact-1",
  "contractName": "LimitPool",
  "sourceName": "contracts/LimitPool.sol",
  "abi": [
    {
      "inputs": [
        {
          "components": [
            {
              "internalType": "address",
              "name": "owner",
              "type": "address"
            },
            {
              "internalType": "address",
              "name": "token0",
              "type": "address"
            },
            {
              "internalType": "address",
              "name": "token1",
              "type": "address"
            },
            {
              "internalType": "uint160",
              "name": "startPrice",
              "type": "uint160"
            },
            {
              "internalType": "int16",
              "name": "tickSpacing",
              "type": "int16"
            }
          ],
          "internalType": "struct LimitPoolFactoryStructs.LimitPoolParams",
          "name": "params",
          "type": "tuple"
        }
      ],
      "stateMutability": "nonpayable",
      "type": "constructor"
    },
    {
      "inputs": [],
      "name": "CollectToZeroAddress",
      "type": "error"
    },
    {
      "inputs": [],
      "name": "FactoryOnly",
      "type": "error"
    },
    {
      "inputs": [],
      "name": "InvalidPosition",
      "type": "error"
    },
    {
      "inputs": [],
      "name": "InvalidSwapFee",
      "type": "error"
    },
    {
      "inputs": [],
      "name": "InvalidTick",
      "type": "error"
    },
    {
      "inputs": [],
      "name": "InvalidTickSpread",
      "type": "error"
    },
    {
      "inputs": [],
      "name": "InvalidToken",
      "type": "error"
    },
    {
      "inputs": [],
      "name": "InvalidTokenDecimals",
      "type": "error"
    },
    {
      "inputs": [],
      "name": "LiquidityOverflow",
      "type": "error"
    },
    {
      "inputs": [],
      "name": "Locked",
      "type": "error"
    },
    {
      "inputs": [],
      "name": "LowerNotEvenTick",
      "type": "error"
    },
    {
      "inputs": [],
      "name": "MaxTickLiquidity",
      "type": "error"
    },
    {
      "inputs": [],
      "name": "NotEnoughOutputLiquidity",
      "type": "error"
    },
    {
      "inputs": [],
      "name": "Overflow",
      "type": "error"
    },
    {
      "inputs": [],
      "name": "OwnerOnly",
      "type": "error"
    },
    {
      "inputs": [],
      "name": "ProtocolFeeCeilingExceeded",
      "type": "error"
    },
    {
      "inputs": [],
      "name": "Token0Missing",
      "type": "error"
    },
    {
      "inputs": [],
      "name": "Token1Missing",
      "type": "error"
    },
    {
      "inputs": [],
      "name": "UpperNotOddTick",
      "type": "error"
    },
    {
      "inputs": [],
      "name": "WaitUntilEnoughObservations",
      "type": "error"
    },
    {
      "inputs": [
        {
          "components": [
            {
              "internalType": "address",
              "name": "to",
              "type": "address"
            },
            {
              "internalType": "uint128",
              "name": "burnPercent",
              "type": "uint128"
            },
            {
              "internalType": "int24",
              "name": "lower",
              "type": "int24"
            },
            {
              "internalType": "int24",
              "name": "claim",
              "type": "int24"
            },
            {
              "internalType": "int24",
              "name": "upper",
              "type": "int24"
            },
            {
              "internalType": "bool",
              "name": "zeroForOne",
              "type": "bool"
            }
          ],
          "internalType": "struct ILimitPoolStructs.BurnParams",
          "name": "params",
          "type": "tuple"
        }
      ],
      "name": "burn",
      "outputs": [],
      "stateMutability": "nonpayable",
      "type": "function"
    },
    {
      "inputs": [],
      "name": "feeTo",
      "outputs": [
        {
          "internalType": "address",
          "name": "",
          "type": "address"
        }
      ],
      "stateMutability": "view",
      "type": "function"
    },
    {
      "inputs": [
        {
          "internalType": "uint16",
          "name": "protocolFee0",
          "type": "uint16"
        },
        {
          "internalType": "uint16",
          "name": "protocolFee1",
          "type": "uint16"
        },
        {
          "internalType": "bool",
          "name": "setFees",
          "type": "bool"
        }
      ],
      "name": "fees",
      "outputs": [
        {
          "internalType": "uint128",
          "name": "token0Fees",
          "type": "uint128"
        },
        {
          "internalType": "uint128",
          "name": "token1Fees",
          "type": "uint128"
        }
      ],
      "stateMutability": "nonpayable",
      "type": "function"
    },
    {
      "inputs": [],
      "name": "globalState",
      "outputs": [
        {
          "internalType": "uint8",
          "name": "unlocked",
          "type": "uint8"
        }
      ],
      "stateMutability": "view",
      "type": "function"
    },
    {
      "inputs": [],
      "name": "maxPrice",
      "outputs": [
        {
          "internalType": "uint160",
          "name": "",
          "type": "uint160"
        }
      ],
      "stateMutability": "view",
      "type": "function"
    },
    {
      "inputs": [],
      "name": "minPrice",
      "outputs": [
        {
          "internalType": "uint160",
          "name": "",
          "type": "uint160"
        }
      ],
      "stateMutability": "view",
      "type": "function"
    },
    {
      "inputs": [
        {
          "components": [
            {
              "internalType": "address",
              "name": "to",
              "type": "address"
            },
            {
              "internalType": "address",
              "name": "refundTo",
              "type": "address"
            },
            {
              "internalType": "uint128",
              "name": "amount",
              "type": "uint128"
            },
            {
              "internalType": "uint96",
              "name": "mintPercent",
              "type": "uint96"
            },
            {
              "internalType": "int24",
              "name": "lower",
              "type": "int24"
            },
            {
              "internalType": "int24",
              "name": "upper",
              "type": "int24"
            },
            {
              "internalType": "bool",
              "name": "zeroForOne",
              "type": "bool"
            }
          ],
          "internalType": "struct ILimitPoolStructs.MintParams",
          "name": "params",
          "type": "tuple"
        }
      ],
      "name": "mint",
      "outputs": [],
      "stateMutability": "nonpayable",
      "type": "function"
    },
    {
      "inputs": [],
      "name": "owner",
      "outputs": [
        {
          "internalType": "address",
          "name": "",
          "type": "address"
        }
      ],
      "stateMutability": "view",
      "type": "function"
    },
    {
      "inputs": [],
      "name": "pool0",
      "outputs": [
        {
          "internalType": "uint160",
          "name": "price",
          "type": "uint160"
        },
        {
          "internalType": "uint128",
          "name": "liquidity",
          "type": "uint128"
        },
        {
          "internalType": "uint128",
          "name": "liquidityGlobal",
          "type": "uint128"
        },
        {
          "internalType": "uint128",
          "name": "protocolFees",
          "type": "uint128"
        },
        {
          "internalType": "uint32",
          "name": "swapEpoch",
          "type": "uint32"
        },
        {
          "internalType": "uint16",
          "name": "protocolFee",
          "type": "uint16"
        },
        {
          "internalType": "int24",
          "name": "tickAtPrice",
          "type": "int24"
        }
      ],
      "stateMutability": "view",
      "type": "function"
    },
    {
      "inputs": [],
      "name": "pool1",
      "outputs": [
        {
          "internalType": "uint160",
          "name": "price",
          "type": "uint160"
        },
        {
          "internalType": "uint128",
          "name": "liquidity",
          "type": "uint128"
        },
        {
          "internalType": "uint128",
          "name": "liquidityGlobal",
          "type": "uint128"
        },
        {
          "internalType": "uint128",
          "name": "protocolFees",
          "type": "uint128"
        },
        {
          "internalType": "uint32",
          "name": "swapEpoch",
          "type": "uint32"
        },
        {
          "internalType": "uint16",
          "name": "protocolFee",
          "type": "uint16"
        },
        {
          "internalType": "int24",
          "name": "tickAtPrice",
          "type": "int24"
        }
      ],
      "stateMutability": "view",
      "type": "function"
    },
    {
      "inputs": [
        {
          "internalType": "address",
          "name": "",
          "type": "address"
        },
        {
          "internalType": "int24",
          "name": "",
          "type": "int24"
        },
        {
          "internalType": "int24",
          "name": "",
          "type": "int24"
        }
      ],
      "name": "positions0",
      "outputs": [
        {
          "internalType": "uint160",
          "name": "claimPriceLast",
          "type": "uint160"
        },
        {
          "internalType": "uint128",
          "name": "liquidity",
          "type": "uint128"
        },
        {
          "internalType": "uint128",
          "name": "amountIn",
          "type": "uint128"
        },
        {
          "internalType": "uint128",
          "name": "amountOut",
          "type": "uint128"
        },
        {
          "internalType": "uint32",
          "name": "epochLast",
          "type": "uint32"
        }
      ],
      "stateMutability": "view",
      "type": "function"
    },
    {
      "inputs": [
        {
          "internalType": "address",
          "name": "",
          "type": "address"
        },
        {
          "internalType": "int24",
          "name": "",
          "type": "int24"
        },
        {
          "internalType": "int24",
          "name": "",
          "type": "int24"
        }
      ],
      "name": "positions1",
      "outputs": [
        {
          "internalType": "uint160",
          "name": "claimPriceLast",
          "type": "uint160"
        },
        {
          "internalType": "uint128",
          "name": "liquidity",
          "type": "uint128"
        },
        {
          "internalType": "uint128",
          "name": "amountIn",
          "type": "uint128"
        },
        {
          "internalType": "uint128",
          "name": "amountOut",
          "type": "uint128"
        },
        {
          "internalType": "uint32",
          "name": "epochLast",
          "type": "uint32"
        }
      ],
      "stateMutability": "view",
      "type": "function"
    },
    {
      "inputs": [
        {
          "components": [
            {
              "internalType": "uint160",
              "name": "priceLimit",
              "type": "uint160"
            },
            {
              "internalType": "uint128",
              "name": "amount",
              "type": "uint128"
            },
            {
              "internalType": "bool",
              "name": "exactIn",
              "type": "bool"
            },
            {
              "internalType": "bool",
              "name": "zeroForOne",
              "type": "bool"
            }
          ],
          "internalType": "struct ILimitPoolStructs.QuoteParams",
          "name": "params",
          "type": "tuple"
        }
      ],
      "name": "quote",
      "outputs": [
        {
          "internalType": "uint256",
          "name": "inAmount",
          "type": "uint256"
        },
        {
          "internalType": "uint256",
          "name": "outAmount",
          "type": "uint256"
        },
        {
          "internalType": "uint256",
          "name": "priceAfter",
          "type": "uint256"
        }
      ],
      "stateMutability": "view",
      "type": "function"
    },
    {
      "inputs": [
        {
          "components": [
            {
              "internalType": "address",
              "name": "owner",
              "type": "address"
            },
            {
              "internalType": "uint128",
              "name": "burnPercent",
              "type": "uint128"
            },
            {
              "internalType": "int24",
              "name": "lower",
              "type": "int24"
            },
            {
              "internalType": "int24",
              "name": "upper",
              "type": "int24"
            },
            {
              "internalType": "int24",
              "name": "claim",
              "type": "int24"
            },
            {
              "internalType": "bool",
              "name": "zeroForOne",
              "type": "bool"
            }
          ],
          "internalType": "struct ILimitPoolStructs.SnapshotParams",
          "name": "params",
          "type": "tuple"
        }
      ],
      "name": "snapshot",
      "outputs": [
        {
          "components": [
            {
              "internalType": "uint160",
              "name": "claimPriceLast",
              "type": "uint160"
            },
            {
              "internalType": "uint128",
              "name": "liquidity",
              "type": "uint128"
            },
            {
              "internalType": "uint128",
              "name": "amountIn",
              "type": "uint128"
            },
            {
              "internalType": "uint128",
              "name": "amountOut",
              "type": "uint128"
            },
            {
              "internalType": "uint32",
              "name": "epochLast",
              "type": "uint32"
            }
          ],
          "internalType": "struct ILimitPoolStructs.Position",
          "name": "",
          "type": "tuple"
        }
      ],
      "stateMutability": "view",
      "type": "function"
    },
    {
      "inputs": [
        {
          "components": [
            {
              "internalType": "address",
              "name": "to",
              "type": "address"
            },
            {
              "internalType": "uint160",
              "name": "priceLimit",
              "type": "uint160"
            },
            {
              "internalType": "uint128",
              "name": "amount",
              "type": "uint128"
            },
            {
              "internalType": "bool",
              "name": "exactIn",
              "type": "bool"
            },
            {
              "internalType": "bool",
              "name": "zeroForOne",
              "type": "bool"
            },
            {
              "internalType": "bytes",
              "name": "callbackData",
              "type": "bytes"
            }
          ],
          "internalType": "struct ILimitPoolStructs.SwapParams",
          "name": "params",
          "type": "tuple"
        }
      ],
      "name": "swap",
      "outputs": [
        {
          "internalType": "int256",
          "name": "",
          "type": "int256"
        },
        {
          "internalType": "int256",
          "name": "",
          "type": "int256"
        }
      ],
      "stateMutability": "nonpayable",
      "type": "function"
    },
    {
      "inputs": [],
      "name": "tickMap",
      "outputs": [
        {
          "internalType": "uint256",
          "name": "blocks",
          "type": "uint256"
        }
      ],
      "stateMutability": "view",
      "type": "function"
    },
    {
      "inputs": [],
      "name": "tickSpacing",
      "outputs": [
        {
          "internalType": "int16",
          "name": "",
          "type": "int16"
        }
      ],
      "stateMutability": "view",
      "type": "function"
    },
    {
      "inputs": [
        {
          "internalType": "int24",
          "name": "",
          "type": "int24"
        }
      ],
      "name": "ticks0",
      "outputs": [
        {
          "internalType": "uint160",
          "name": "priceAt",
          "type": "uint160"
        },
        {
          "internalType": "int128",
          "name": "liquidityDelta",
          "type": "int128"
        }
      ],
      "stateMutability": "view",
      "type": "function"
    },
    {
      "inputs": [
        {
          "internalType": "int24",
          "name": "",
          "type": "int24"
        }
      ],
      "name": "ticks1",
      "outputs": [
        {
          "internalType": "uint160",
          "name": "priceAt",
          "type": "uint160"
        },
        {
          "internalType": "int128",
          "name": "liquidityDelta",
          "type": "int128"
        }
      ],
      "stateMutability": "view",
      "type": "function"
    },
    {
      "inputs": [],
      "name": "token0",
      "outputs": [
        {
          "internalType": "address",
          "name": "",
          "type": "address"
        }
      ],
      "stateMutability": "view",
      "type": "function"
    },
    {
      "inputs": [],
      "name": "token1",
      "outputs": [
        {
          "internalType": "address",
          "name": "",
          "type": "address"
        }
      ],
      "stateMutability": "view",
      "type": "function"
    }
  ],
  "bytecode": "0x6101406040523480156200001257600080fd5b5060405162002c0b38038062002c0b833981016040819052620000359162000178565b80516001600160a01b039081166080908152602083018051831660a05260408085018051851660c0529285018051600190810b610120529151637aba586f60e11b8152600760048083019190915260248201849052604482015260005460ff1660648201528651861660848201529251851660a48401529251841660c4830152606085015190931660e4820152905190910b61010482015273__$dc25dd3a5fe6a540f35c01c335c2ccfd23$__9063f574b0de9061012401606060405180830381865af41580156200010b573d6000803e3d6000fd5b505050506040513d601f19601f820116820180604052508101906200013191906200022f565b6001600160a01b03908116610100521660e052516000805460ff191660ff90921691909117905550620002cf565b6001600160a01b03811681146200017557600080fd5b50565b600060a082840312156200018b57600080fd5b60405160a081016001600160401b0381118282101715620001bc57634e487b7160e01b600052604160045260246000fd5b6040528251620001cc816200015f565b81526020830151620001de816200015f565b60208201526040830151620001f3816200015f565b6040820152606083015162000208816200015f565b60608201526080830151600181900b81146200022357600080fd5b60808201529392505050565b600080600083850360608112156200024657600080fd5b60208112156200025557600080fd5b50604051602081016001600160401b03811182821017156200028757634e487b7160e01b600052604160045260246000fd5b604052845160ff811681146200029c57600080fd5b81526020850151909350620002b1816200015f565b6040850151909250620002c4816200015f565b809150509250925092565b60805160a05160c05160e05161010051610120516128ad6200035e6000396000818161047f015261138a015260008181610575015261130f01526000818161059c01526112e50152600081816104b901528181610e79015261136101526000818161022001528181610e36015261133901526000818161035601528181610d7201526113bf01526128ad6000f3fe608060405234801561001057600080fd5b50600436106101375760003560e01c8063a8ecc212116100b8578063e323eb0e1161007c578063e323eb0e14610548578063e38d6b5c14610570578063e45be8eb14610597578063e76c01e4146105be578063ef2a6855146105dd578063f3f3b7ad1461061357600080fd5b8063a8ecc212146103f0578063c81533a414610423578063d0c93a7c1461047a578063d21220a7146104b4578063db62455a146104db57600080fd5b806343865d4e116100ff57806343865d4e1461030b5780637e2339fd146103395780638da5cb5b14610351578063909181e814610378578063a0176b071461039857600080fd5b8063017e7e581461013c57806305ea3ed51461016c5780630dfe16811461021b578063127ed61d146102425780633a76fa2714610257575b600080fd5b600b5461014f906001600160a01b031681565b6040516001600160a01b0390911681526020015b60405180910390f35b6004546005546006546101c1926001600160a01b0316916001600160801b0380821692600160801b9283900482169291811691810463ffffffff1690600160a01b810461ffff1690600160b01b900460020b87565b604080516001600160a01b0390981688526001600160801b0396871660208901529486169487019490945293909116606085015263ffffffff16608084015261ffff90911660a083015260020b60c082015260e001610163565b61014f7f000000000000000000000000000000000000000000000000000000000000000081565b610255610250366004611943565b610626565b005b6102c4610265366004611966565b600e6020908152600093845260408085208252928452828420905282529020805460018201546002909201546001600160a01b03909116916001600160801b0380821692600160801b928390048216929181169163ffffffff91041685565b604080516001600160a01b0390961686526001600160801b0394851660208701529284169285019290925291909116606083015263ffffffff16608082015260a001610163565b61031e6103193660046119b1565b610a26565b60408051938452602084019290925290820152606001610163565b6007546103439081565b604051908152602001610163565b61014f7f000000000000000000000000000000000000000000000000000000000000000081565b61038b610386366004611943565b610b8e565b6040516101639190611a85565b6103ce6103a6366004611a93565b600d60205260009081526040902080546001909101546001600160a01b0390911690600f0b82565b604080516001600160a01b039093168352600f9190910b602083015201610163565b6104036103fe366004611ac0565b610cf6565b604080516001600160801b03938416815292909116602083015201610163565b600154600280546003546101c1936001600160a01b0316926001600160801b0380841693600160801b908190048216939182169290820463ffffffff1691600160a01b810461ffff1691600160b01b909104900b87565b6104a17f000000000000000000000000000000000000000000000000000000000000000081565b60405160019190910b8152602001610163565b61014f7f000000000000000000000000000000000000000000000000000000000000000081565b6102c46104e9366004611966565b600f6020908152600093845260408085208252928452828420905282529020805460018201546002909201546001600160a01b03909116916001600160801b0380821692600160801b928390048216929181169163ffffffff91041685565b61055b610556366004611b8d565b610eb0565b60408051928352602083019190915201610163565b61014f7f000000000000000000000000000000000000000000000000000000000000000081565b61014f7f000000000000000000000000000000000000000000000000000000000000000081565b6000546105cb9060ff1681565b60405160ff9091168152602001610163565b6103ce6105eb366004611a93565b600c60205260009081526040902080546001909101546001600160a01b0390911690600f0b82565b610255610621366004611c55565b611035565b61062e611293565b80516001600160a01b031661065657604051636a0b0d4f60e01b815260040160405180910390fd5b6040805160a08082019092526000805460ff166080830190815282529183015160208201906106b657336000908152600f6020908152604080832087820151600290810b8552908352818420608089015190910b845290915290206106e9565b336000908152600e6020908152604080832087820151600290810b8552908352818420608089015190910b845290915290205b6040805160a08101825282546001600160a01b0316815260018301546001600160801b03808216602080850191909152600160801b92839004821694840194909452600290940154938416606083015290920463ffffffff166080830152908252016107536112c8565b81526020018360a0015161076857600461076b565b60015b6040805160e08101825282546001600160a01b0316815260018301546001600160801b038082166020840152600160801b918290048116938301939093526002938401549283166060830152820463ffffffff166080820152600160a01b820461ffff1660a080830191909152600160b01b90920490920b60c0830152915283015190915073__$5dad83152cc730ce53bb65fb4ae6d99ea9$__906368f27081908490849060079061081e57600d610821565b600c5b8760a0015161083157600f610834565b600e5b6040518663ffffffff1660e01b8152600401610854959493929190611df6565b61024060405180830381865af4158015610872573d6000803e3d6000fd5b505050506040513d601f19601f8201168201806040525081019061089691906120fc565b90508160a001511561095c576060808201518051600180546001600160a01b039092166001600160a01b0319928316179055602082015160408301516001600160801b03908116600160801b908102928216929092176002559383015160038054608086015160a087015160c09097015162ffffff16600160b01b0262ffffff60b01b1961ffff909816600160a01b029790971664ffffffffff60a01b1963ffffffff909216909502919095169290961691909117949094179190911617179055610a12565b6060808201518051600480546001600160a01b039092166001600160a01b0319928316179055602082015160408301516001600160801b03908116600160801b908102928216929092176005559383015160068054608086015160a087015160c09097015162ffffff16600160b01b0262ffffff60b01b1961ffff909816600160a01b029790971664ffffffffff60a01b1963ffffffff9092169095029190951692909616919091179490941791909116171790555b50506000805460ff19166001179055565b50565b6000806000610a336115b7565b8460600151610a43576001610a46565b60045b6040805160e08101825282546001600160a01b0316815260018301546001600160801b03808216602080850191909152600160801b92839004821684860152600295860154918216606085015291810463ffffffff166080840152600160a01b810461ffff1660a0840152600160b01b900490930b60c0820152838201528051918201905260005460ff1681528152610add6112c8565b816020018190525073__$9e4c229d336278bda7a6b638eb4f56779a$__635519a683868360078960600151610b1357600c610b16565b600d5b6040518563ffffffff1660e01b8152600401610b3594939291906121fc565b606060405180830381865af4158015610b52573d6000803e3d6000fd5b505050506040513d601f19601f82011682018060405250810190610b76919061225a565b91955093506001600160a01b03169150509193909250565b6040805160a08101825260008082526020820181905291810182905260608101829052608081019190915273__$76cc67c47c6cd8fa14026cc00c5aa66f37$__633c9e17f68360a00151610be357600f610be6565b600e5b8460a00151610bf657600d610bf9565b600c5b600760008760a00151610c0d576004610c10565b60015b6040518060e001604052808a600001516001600160a01b031681526020018a600001516001600160a01b031681526020018a602001516001600160801b031681526020018a6040015160020b81526020018a6060015160020b81526020018a6080015160020b81526020018a60a001511515815250610c8d6112c8565b6040518863ffffffff1660e01b8152600401610caf9796959493929190612288565b60a060405180830381865af4158015610ccc573d6000803e3d6000fd5b505050506040513d601f19601f82011682018060405250810190610cf091906123a5565b92915050565b600080610d016113b4565b8215610d6e576127108561ffff161180610d2057506127108461ffff16115b15610d3e5760405163acacfb3d60e01b815260040160405180910390fd5b6006805461ffff808816600160a01b90810261ffff60a01b19938416179093556003805491881690930291161790555b60007f00000000000000000000000000000000000000000000000000000000000000006001600160a01b031663017e7e586040518163ffffffff1660e01b8152600401602060405180830381865afa158015610dce573d6000803e3d6000fd5b505050506040513d601f19601f82011682018060405250810190610df291906123c1565b60068054600380546fffffffffffffffffffffffffffffffff198082169092559082169092556001600160801b03908116955016925090508215610e6457610e64817f0000000000000000000000000000000000000000000000000000000000000000856001600160801b03166113ff565b6001600160801b03821615610ea757610ea7817f0000000000000000000000000000000000000000000000000000000000000000846001600160801b03166113ff565b50935093915050565b600080610ebb611293565b610ec36115b7565b8360800151610ed3576001610ed6565b60045b6040805160e08101825282546001600160a01b0316815260018301546001600160801b03808216602080850191909152600160801b92839004821684860152600295860154918216606085015291810463ffffffff166080840152600160a01b810461ffff1660a0840152600160b01b900490930b60c0820152838201528051918201905260005460ff1681528152610f6d6112c8565b816020018190525073__$8397ab196537c2cfcd89b6140849e98c7e$__639d07049e858360078860800151610fa3576001610fa6565b60045b8960800151610fb657600c610fb9565b600d5b6040518663ffffffff1660e01b8152600401610fd995949392919061242b565b6040805180830381865af4158015610ff5573d6000803e3d6000fd5b505050506040513d601f19601f8201168201806040525081019061101991906124cc565b92509250506110306000805460ff19166001179055565b915091565b61103d611293565b61104561163d565b604080516020810190915260005460ff16815281526110626112c8565b604082015260c082015161107757600461107a565b60015b6040805160e08101825282546001600160a01b0316815260018301546001600160801b038082166020840152600160801b9182900481169383019390935260029384015492831660608084019190915290830463ffffffff166080830152600160a01b830461ffff1660a0830152600160b01b90920490920b60c08084019190915290830191909152820151611111576001611114565b60045b6040805160e08101825282546001600160a01b0316815260018301546001600160801b038082166020840152600160801b918290048116938301939093526002938401549283166060830152820463ffffffff16608080830191909152600160a01b830461ffff1660a0830152600160b01b90920490920b60c0808401919091529083019190915282015173__$007bbb7dd8ce8caff62f844d2fbd2823ce$__9063d35defa590849084906007906111cd5760046111d0565b60015b8760c001516111e05760016111e3565b60045b8860c001516111f357600d6111f6565b600c5b8960c0015161120657600c611209565b600d5b8a60c0015161121957600f61121c565b600e5b6040518963ffffffff1660e01b815260040161123f9897969594939291906125c2565b6106e060405180830381865af415801561125d573d6000803e3d6000fd5b505050506040513d601f19601f82011682018060405250810190611281919061276b565b50506000805460ff1916600117905550565b60005460ff166002036112b9576040516303cb96db60e21b815260040160405180910390fd5b6000805460ff19166002179055565b6112d06116f3565b506040805160c0810182526001600160a01b037f00000000000000000000000000000000000000000000000000000000000000008116608083019081527f0000000000000000000000000000000000000000000000000000000000000000821660a084015282527f0000000000000000000000000000000000000000000000000000000000000000811660208301527f000000000000000000000000000000000000000000000000000000000000000016918101919091527f000000000000000000000000000000000000000000000000000000000000000060010b606082015290565b336001600160a01b037f000000000000000000000000000000000000000000000000000000000000000016146113fd57604051630b2db9b760e31b815260040160405180910390fd5b565b6001600160a01b03821661149e57804710156114625760405162461bcd60e51b815260206004820181905260248201527f5472616e736665724661696c656428616464726573732874686973292c20746f60448201526064015b60405180910390fd5b6040516001600160a01b0384169082156108fc029083906000818181858888f19350505050158015611498573d6000803e3d6000fd5b50505050565b806000036114ab57505050565b60405163a9059cbb60e01b81526001600160a01b0384811660048301526024820183905283919082169063a9059cbb906044016020604051808303816000875af11580156114fd573d6000803e3d6000fd5b505050506040513d601f19601f82011682018060405250810190611521919061285a565b5060003d801561153c57602081146115455760009150611551565b60019150611551565b60206000803e60005191505b50806115b05760405162461bcd60e51b815260206004820152602860248201527f5472616e736665724661696c656428616464726573732874686973292c206d73604482015267339739b2b73232b960c11b6064820152608401611459565b5050505050565b604080516101a08101909152600061018082019081528152602081016115db6116f3565b81526020016115e8611727565b8152602001600081526020016000815260200160008152602001600081526020016000815260200160006001600160a01b03168152602001600060020b81526020016000151581526020016000151581525090565b604080516101e08101825260006101c082018181528252825160a08101845281815260208082018390528185018390526060820183905260808201929092529082015290810161168b6116f3565b8152602001611698611727565b81526020016116a5611727565b81526020016116b26115b7565b815260200160008152602001600081526020016000815260200160008152602001600081526020016000815260200160008152602001600060020b81525090565b6040805160c08101825260006080820181815260a08301829052825260208201819052918101829052606081019190915290565b6040805160e081018252600080825260208201819052918101829052606081018290526080810182905260a0810182905260c081019190915290565b634e487b7160e01b600052604160045260246000fd5b60405160c0810167ffffffffffffffff8111828210171561179c5761179c611763565b60405290565b60405160e0810167ffffffffffffffff8111828210171561179c5761179c611763565b6040516080810167ffffffffffffffff8111828210171561179c5761179c611763565b6040805190810167ffffffffffffffff8111828210171561179c5761179c611763565b604051610180810167ffffffffffffffff8111828210171561179c5761179c611763565b6040516101c0810167ffffffffffffffff8111828210171561179c5761179c611763565b6001600160a01b0381168114610a2357600080fd5b6001600160801b0381168114610a2357600080fd5b8060020b8114610a2357600080fd5b80356118978161187d565b919050565b8015158114610a2357600080fd5b80356118978161189c565b600060c082840312156118c757600080fd5b6118cf611779565b905081356118dc81611853565b815260208201356118ec81611868565b602082015260408201356118ff8161187d565b604082015260608201356119128161187d565b606082015260808201356119258161187d565b608082015260a08201356119388161189c565b60a082015292915050565b600060c0828403121561195557600080fd5b61195f83836118b5565b9392505050565b60008060006060848603121561197b57600080fd5b833561198681611853565b925060208401356119968161187d565b915060408401356119a68161187d565b809150509250925092565b6000608082840312156119c357600080fd5b6040516080810181811067ffffffffffffffff821117156119e6576119e6611763565b60405282356119f481611853565b81526020830135611a0481611868565b60208201526040830135611a178161189c565b60408201526060830135611a2a8161189c565b60608201529392505050565b80516001600160a01b031682526020808201516001600160801b03908116918401919091526040808301518216908401526060808301519091169083015260809081015163ffffffff16910152565b60a08101610cf08284611a36565b600060208284031215611aa557600080fd5b813561195f8161187d565b61ffff81168114610a2357600080fd5b600080600060608486031215611ad557600080fd5b8335611ae081611ab0565b92506020840135611af081611ab0565b915060408401356119a68161189c565b600082601f830112611b1157600080fd5b813567ffffffffffffffff80821115611b2c57611b2c611763565b604051601f8301601f19908116603f01168101908282118183101715611b5457611b54611763565b81604052838152866020858801011115611b6d57600080fd5b836020870160208301376000602085830101528094505050505092915050565b600060208284031215611b9f57600080fd5b813567ffffffffffffffff80821115611bb757600080fd5b9083019060c08286031215611bcb57600080fd5b611bd3611779565b8235611bde81611853565b81526020830135611bee81611853565b60208201526040830135611c0181611868565b6040820152611c12606084016118aa565b6060820152611c23608084016118aa565b608082015260a083013582811115611c3a57600080fd5b611c4687828601611b00565b60a08301525095945050505050565b600060e08284031215611c6757600080fd5b611c6f6117a2565b8235611c7a81611853565b81526020830135611c8a81611853565b60208201526040830135611c9d81611868565b604082015260608301356bffffffffffffffffffffffff81168114611cc157600080fd5b6060820152611cd26080840161188c565b6080820152611ce360a0840161188c565b60a0820152611cf460c084016118aa565b60c08201529392505050565b805180516001600160a01b03908116845260209182015181168285015290820151811660408085019190915282015116606080840191909152015160010b608090910152565b60018060a01b03815116825260208101516001600160801b038082166020850152806040840151166040850152806060840151166060850152505063ffffffff608082015116608083015261ffff60a08201511660a083015260c081015160020b60c08301525050565b60ff8151511682526020810151611dca6020840182611a36565b506040810151611ddd60c0840182611d00565b506060810151611df1610160840182611d46565b505050565b60006103608201905060018060a01b0387511682526001600160801b036020880151166020830152604087015160020b6040830152606087015160020b6060830152608087015160020b608083015260a0870151151560a0830152611e5e60c0830187611db0565b8461030083015283610320830152826103408301529695505050505050565b600060208284031215611e8f57600080fd5b6040516020810181811067ffffffffffffffff82111715611eb257611eb2611763565b8060405250809150825160ff81168114611ecb57600080fd5b905292915050565b805161189781611853565b805163ffffffff8116811461189757600080fd5b600060a08284031215611f0457600080fd5b60405160a0810181811067ffffffffffffffff82111715611f2757611f27611763565b80604052508091508251611f3a81611853565b81526020830151611f4a81611868565b60208201526040830151611f5d81611868565b60408201526060830151611f7081611868565b6060820152611f8160808401611ede565b60808201525092915050565b600081830360a0811215611fa057600080fd5b611fa86117c5565b91506040811215611fb857600080fd5b50611fc16117e8565b8251611fcc81611853565b81526020830151611fdc81611853565b602082015281526040820151611ff181611853565b6020820152606082015161200481611853565b60408201526080820151600181900b811461201e57600080fd5b606082015292915050565b805161189781611ab0565b80516118978161187d565b600060e0828403121561205157600080fd5b60405160e0810181811067ffffffffffffffff8211171561207457612074611763565b8060405250809150825161208781611853565b8152602083015161209781611868565b602082015260408301516120aa81611868565b604082015260608301516120bd81611868565b60608201526120ce60808401611ede565b60808201526120df60a08401612029565b60a08201526120f060c08401612034565b60c08201525092915050565b6000610240828403121561210f57600080fd5b6121176117c5565b6121218484611e7d565b81526121308460208501611ef2565b60208201526121428460c08501611f8d565b6040820152611a2a84610160850161203f565b80515160ff168252602081015161216f6020840182611d00565b50604081015161218260c0840182611d46565b5060608101516101a083015260808101516101c083015260a08101516101e083015260c081015161020083015260e08101516102208301526101008101516001600160a01b031661024083015261012081015160020b6102608301526101408101511515610280830152610160015115156102a090910152565b84516001600160a01b031681526020808601516001600160801b03169082015260408086015115159082015260608086015115159082015261038081016122466080830186612155565b610340820193909352610360015292915050565b60008060006060848603121561226f57600080fd5b835192506020840151915060408401516119a681611853565b8781526020810187905260408101869052845460ff16606082015283546001600160a01b0316608082015260018401546001600160801b0380821660a08401526102e083019190608082901c60c085015260028701546001600160801b038282161660e0860152915050608081901c63ffffffff1661010084015260a081901c61ffff1661012084015260b081901c60020b6101408401525083516001600160a01b0390811661016084015260208501511661018083015260408401516001600160801b03166101a08301526060840151600290810b6101c08401526080850151810b6101e084015260a0850151900b61020083015260c08401511515610220830152612399610240830184611d00565b98975050505050505050565b600060a082840312156123b757600080fd5b61195f8383611ef2565b6000602082840312156123d357600080fd5b815161195f81611853565b6000815180845260005b81811015612404576020818501810151868301820152016123e8565b81811115612416576000602083870101525b50601f01601f19169290920160200192915050565b61034080825286516001600160a01b039081169183019190915260208701511661036082015260408601516001600160801b0316610380820152606086015115156103a0820152608086015115156103c082015260a086015160c06103e083015260009061249d6104008401826123de565b9150506124ad6020830187612155565b846102e083015283610300830152826103208301529695505050505050565b600080604083850312156124df57600080fd5b505080516020909101519092909150565b80515160ff168252602081015161250a6020840182611a36565b50604081015161251d60c0840182611d00565b50606081015161016061253281850183611d46565b60808301519150612547610240850183611d46565b60a0830151915061255c610320850183612155565b60c08301516105e085015260e0830151610600850152610100830151610620850152610120830151610640850152610140830151610660850152820151610680840152506101808101516106a08301526101a0810151611df16106c084018260020b9052565b60006108808201905060018060a01b03808b511683528060208c0151166020840152506001600160801b0360408b01511660408301526bffffffffffffffffffffffff60608b015116606083015260808a015160020b608083015260a08a015161263160a084018260020b9052565b5060c08a015161264560c084018215159052565b5061265360e083018a6124f0565b876107c0830152866107e0830152856108008301528461082083015283610840830152826108608301529998505050505050505050565b80516118978161189c565b60006102c082840312156126a857600080fd5b6126b061180b565b90506126bc8383611e7d565b81526126cb8360208401611f8d565b60208201526126dd8360c0840161203f565b60408201526101a082015160608201526101c082015160808201526101e082015160a082015261020082015160c082015261022082015160e08201526127266102408301611ed3565b6101008201526127396102608301612034565b61012082015261274c610280830161268a565b61014082015261275f6102a0830161268a565b61016082015292915050565b60006106e0828403121561277e57600080fd5b61278661182f565b6127908484611e7d565b815261279f8460208501611ef2565b60208201526127b18460c08501611f8d565b60408201526101606127c58582860161203f565b60608301526127d885610240860161203f565b60808301526127eb856103208601612695565b60a08301526105e084015160c083015261060084015160e0830152610620840151610100830152610640840151610120830152610660840151610140830152610680840151908201526106a083015161018082015261284d6106c08401612034565b6101a08201529392505050565b60006020828403121561286c57600080fd5b815161195f8161189c56fea2646970667358221220cf42d7e5b0b1476dbd8a6c5cfea0daeb490e393bd13a8d50f83613a251289d4c64736f6c634300080d0033",
  "linkReferences": {
    "contracts/libraries/Positions.sol": {
      "Positions": [
        {
          "length": 20,
          "start": 3865
        }
      ]
    },
    "contracts/libraries/Ticks.sol": {
      "Ticks": [
        {
          "length": 20,
          "start": 207
        }
      ]
    },
    "contracts/libraries/pool/BurnCall.sol": {
      "BurnCall": [
        {
          "length": 20,
          "start": 2896
        }
      ]
    },
    "contracts/libraries/pool/MintCall.sol": {
      "MintCall": [
        {
          "length": 20,
          "start": 5375
        }
      ]
    },
    "contracts/libraries/pool/QuoteCall.sol": {
      "QuoteCall": [
        {
          "length": 20,
          "start": 3653
        }
      ]
    },
    "contracts/libraries/pool/SwapCall.sol": {
      "SwapCall": [
        {
          "length": 20,
          "start": 4821
        }
      ]
    }
  },
  "deployedLinkReferences": {
    "contracts/libraries/Positions.sol": {
      "Positions": [
        {
          "length": 20,
          "start": 3003
        }
      ]
    },
    "contracts/libraries/pool/BurnCall.sol": {
      "BurnCall": [
        {
          "length": 20,
          "start": 2034
        }
      ]
    },
    "contracts/libraries/pool/MintCall.sol": {
      "MintCall": [
        {
          "length": 20,
          "start": 4513
        }
      ]
    },
    "contracts/libraries/pool/QuoteCall.sol": {
      "QuoteCall": [
        {
          "length": 20,
          "start": 2791
        }
      ]
    },
    "contracts/libraries/pool/SwapCall.sol": {
      "SwapCall": [
        {
          "length": 20,
          "start": 3959
        }
      ]
    }
  }
}