{
  "_format": "hh-sol-artifact-1",
  "contractName": "LimitPoolManager",
  "sourceName": "contracts/utils/LimitPoolManager.sol",
  "abi": [
    {
      "inputs": [],
      "stateMutability": "nonpayable",
      "type": "constructor"
    },
    {
      "inputs": [],
      "name": "InvalidTickSpacing",
      "type": "error"
    },
    {
      "anonymous": false,
      "inputs": [
        {
          "indexed": true,
          "internalType": "address",
          "name": "previousFactory",
          "type": "address"
        },
        {
          "indexed": true,
          "internalType": "address",
          "name": "newFactory",
          "type": "address"
        }
      ],
      "name": "FactoryChanged",
      "type": "event"
    },
    {
      "anonymous": false,
      "inputs": [
        {
          "indexed": true,
          "internalType": "address",
          "name": "previousFeeTo",
          "type": "address"
        },
        {
          "indexed": true,
          "internalType": "address",
          "name": "newFeeTo",
          "type": "address"
        }
      ],
      "name": "FeeToTransfer",
      "type": "event"
    },
    {
      "anonymous": false,
      "inputs": [
        {
          "indexed": true,
          "internalType": "address",
          "name": "previousOwner",
          "type": "address"
        },
        {
          "indexed": true,
          "internalType": "address",
          "name": "newOwner",
          "type": "address"
        }
      ],
      "name": "OwnerTransfer",
      "type": "event"
    },
    {
      "anonymous": false,
      "inputs": [
        {
          "indexed": false,
          "internalType": "address[]",
          "name": "collectPools",
          "type": "address[]"
        },
        {
          "indexed": false,
          "internalType": "uint128[]",
          "name": "token0Fees",
          "type": "uint128[]"
        },
        {
          "indexed": false,
          "internalType": "uint128[]",
          "name": "token1Fees",
          "type": "uint128[]"
        }
      ],
      "name": "ProtocolFeesCollected",
      "type": "event"
    },
    {
      "anonymous": false,
      "inputs": [
        {
          "indexed": false,
          "internalType": "address[]",
          "name": "modifyPools",
          "type": "address[]"
        },
        {
          "indexed": false,
          "internalType": "uint16[]",
          "name": "syncFees",
          "type": "uint16[]"
        },
        {
          "indexed": false,
          "internalType": "uint16[]",
          "name": "fillFees",
          "type": "uint16[]"
        },
        {
          "indexed": false,
          "internalType": "bool[]",
          "name": "setFees",
          "type": "bool[]"
        },
        {
          "indexed": false,
          "internalType": "uint128[]",
          "name": "token0Fees",
          "type": "uint128[]"
        },
        {
          "indexed": false,
          "internalType": "uint128[]",
          "name": "token1Fees",
          "type": "uint128[]"
        }
      ],
      "name": "ProtocolFeesModified",
      "type": "event"
    },
    {
      "anonymous": false,
      "inputs": [
        {
          "indexed": false,
          "internalType": "int16",
          "name": "tickSpacing",
          "type": "int16"
        }
      ],
      "name": "TickSpacingEnabled",
      "type": "event"
    },
    {
      "inputs": [],
      "name": "MAX_PROTOCOL_FEE",
      "outputs": [
        {
          "internalType": "uint16",
          "name": "",
          "type": "uint16"
        }
      ],
      "stateMutability": "view",
      "type": "function"
    },
    {
      "inputs": [
        {
          "internalType": "address[]",
          "name": "collectPools",
          "type": "address[]"
        }
      ],
      "name": "collectProtocolFees",
      "outputs": [],
      "stateMutability": "nonpayable",
      "type": "function"
    },
    {
      "inputs": [
        {
          "internalType": "int16",
          "name": "tickSpacing",
          "type": "int16"
        }
      ],
      "name": "enableTickSpacing",
      "outputs": [],
      "stateMutability": "nonpayable",
      "type": "function"
    },
    {
      "inputs": [],
      "name": "factory",
      "outputs": [
        {
          "internalType": "address",
          "name": "",
          "type": "address"
        }
      ],
      "stateMutability": "view",
      "type": "function"
    },
    {
      "inputs": [],
      "name": "feeTo",
      "outputs": [
        {
          "internalType": "address",
          "name": "",
          "type": "address"
        }
      ],
      "stateMutability": "view",
      "type": "function"
    },
    {
      "inputs": [
        {
          "internalType": "address[]",
          "name": "modifyPools",
          "type": "address[]"
        },
        {
          "internalType": "uint16[]",
          "name": "syncFees",
          "type": "uint16[]"
        },
        {
          "internalType": "uint16[]",
          "name": "fillFees",
          "type": "uint16[]"
        },
        {
          "internalType": "bool[]",
          "name": "setFees",
          "type": "bool[]"
        }
      ],
      "name": "modifyProtocolFees",
      "outputs": [],
      "stateMutability": "nonpayable",
      "type": "function"
    },
    {
      "inputs": [],
      "name": "owner",
      "outputs": [
        {
          "internalType": "address",
          "name": "",
          "type": "address"
        }
      ],
      "stateMutability": "view",
      "type": "function"
    },
    {
      "inputs": [
        {
          "internalType": "address",
          "name": "factory_",
          "type": "address"
        }
      ],
      "name": "setFactory",
      "outputs": [],
      "stateMutability": "nonpayable",
      "type": "function"
    },
    {
      "inputs": [
        {
          "internalType": "int16",
          "name": "tickSpacing",
          "type": "int16"
        }
      ],
      "name": "tickSpacings",
      "outputs": [
        {
          "internalType": "bool",
          "name": "",
          "type": "bool"
        }
      ],
      "stateMutability": "view",
      "type": "function"
    },
    {
      "inputs": [
        {
          "internalType": "address",
          "name": "newFeeTo",
          "type": "address"
        }
      ],
      "name": "transferFeeTo",
      "outputs": [],
      "stateMutability": "nonpayable",
      "type": "function"
    },
    {
      "inputs": [
        {
          "internalType": "address",
          "name": "newOwner",
          "type": "address"
        }
      ],
      "name": "transferOwner",
      "outputs": [],
      "stateMutability": "nonpayable",
      "type": "function"
    }
  ],
  "bytecode": "0x608060405234801561001057600080fd5b5060008054336001600160a01b0319918216811783556001805490921681179091556040519091907f5327f96e1b66776c2f90adb141c8f65efa8dd259adb405009213276527cbf69a908290a3600360209081527f9dcb9783ba5cd0b54745f65f4f918525e461e91888c334e5342cb380ac558d538054600160ff19918216811790925560146000527f0ffe031ee7f67944a037276fd51f48fcc2fe05a729c43144606bc8777da8014f80549091169091179055604051600a81526000805160206110f0833981519152910160405180910390a1604051601481526000805160206110f08339815191529060200160405180910390a1610fdb806101156000396000f3fe608060405234801561001057600080fd5b50600436106100a85760003560e01c80635bb47808116100715780635bb478081461012b5780638997a72a1461013e5780638da5cb5b14610174578063b8ca3b8314610187578063c0bf121d146101a3578063c45a0155146101b657600080fd5b8062aa45a5146100ad578063017e7e58146100c257806321fcf741146100f257806337765884146101055780634fb2e45d14610118575b600080fd5b6100c06100bb366004610b95565b6101c9565b005b6001546100d5906001600160a01b031681565b6040516001600160a01b0390911681526020015b60405180910390f35b6100c0610100366004610bd7565b6103de565b6100c0610113366004610cb7565b6107e4565b6100c0610126366004610cb7565b61084e565b6100c0610139366004610cb7565b6108b5565b61016461014c366004610cd9565b60010b60009081526003602052604090205460ff1690565b60405190151581526020016100e9565b6000546100d5906001600160a01b031681565b61019061271081565b60405161ffff90911681526020016100e9565b6100c06101b1366004610cd9565b610968565b6002546100d5906001600160a01b031681565b60008190036102135760405162461bcd60e51b8152602060048201526011602482015270456d707479506f6f6c734172726179282960781b60448201526064015b60405180910390fd5b60008167ffffffffffffffff81111561022e5761022e610cfc565b604051908082528060200260200182016040528015610257578160200160208202803683370190505b50905060008267ffffffffffffffff81111561027557610275610cfc565b60405190808252806020026020018201604052801561029e578160200160208202803683370190505b50905060005b8381101561039a578484828181106102be576102be610d12565b90506020020160208101906102d39190610cb7565b604051635476610960e11b81526000600482018190526024820181905260448201526001600160a01b03919091169063a8ecc2129060640160408051808303816000875af1158015610329573d6000803e3d6000fd5b505050506040513d601f19601f8201168201806040525081019061034d9190610d3f565b84838151811061035f5761035f610d12565b6020026020010184848151811061037857610378610d12565b6001600160801b039384166020918202929092010152911690526001016102a4565b507fb8451c39a0f69d372c1a4bb8ef4a637ed1dd8a40c60f55d22a4bbe6d298ececc848484846040516103d09493929190610df2565b60405180910390a150505050565b6103e6610a15565b600087900361042b5760405162461bcd60e51b8152602060048201526011602482015270456d707479506f6f6c734172726179282960781b604482015260640161020a565b868514158061043a5750848314155b806104455750828114155b156104925760405162461bcd60e51b815260206004820152601860248201527f4d69736d61746368656441727261794c656e6774687328290000000000000000604482015260640161020a565b60008767ffffffffffffffff8111156104ad576104ad610cfc565b6040519080825280602002602001820160405280156104d6578160200160208202803683370190505b50905060008867ffffffffffffffff8111156104f4576104f4610cfc565b60405190808252806020026020018201604052801561051d578160200160208202803683370190505b50905060005b8981101561078e5761271089898381811061054057610540610d12565b90506020020160208101906105559190610e49565b61ffff1611156105a75760405162461bcd60e51b815260206004820152601c60248201527f50726f746f636f6c4665654365696c696e674578636565646564282900000000604482015260640161020a565b6127108787838181106105bc576105bc610d12565b90506020020160208101906105d19190610e49565b61ffff1611156106235760405162461bcd60e51b815260206004820152601c60248201527f50726f746f636f6c4665654365696c696e674578636565646564282900000000604482015260640161020a565b8a8a8281811061063557610635610d12565b905060200201602081019061064a9190610cb7565b6001600160a01b031663a8ecc2128a8a8481811061066a5761066a610d12565b905060200201602081019061067f9190610e49565b89898581811061069157610691610d12565b90506020020160208101906106a69190610e49565b8888868181106106b8576106b8610d12565b90506020020160208101906106cd9190610e74565b6040516001600160e01b031960e086901b16815261ffff93841660048201529290911660248301521515604482015260640160408051808303816000875af115801561071d573d6000803e3d6000fd5b505050506040513d601f19601f820116820180604052508101906107419190610d3f565b84838151811061075357610753610d12565b6020026020010184848151811061076c5761076c610d12565b6001600160801b03938416602091820292909201015291169052600101610523565b507f7e9ddc937c042c1c6ce9743c4e9440cffeeb42d9296f0363e8c1be9ed33dbc8d8a8a8a8a8a8a8a8a8a8a6040516107d09a99989796959493929190610ec6565b60405180910390a150505050505050505050565b6107ec610a5f565b6001600160a01b0381166108425760405162461bcd60e51b815260206004820152601a60248201527f5472616e73666572726564546f5a65726f416464726573732829000000000000604482015260640161020a565b61084b81610aa7565b50565b610856610a15565b6001600160a01b0381166108ac5760405162461bcd60e51b815260206004820152601a60248201527f5472616e73666572726564546f5a65726f416464726573732829000000000000604482015260640161020a565b61084b81610af9565b6108bd610a15565b6002546001600160a01b03161561090c5760405162461bcd60e51b8152602060048201526013602482015272466163746f7279416c7265616479536574282960681b604482015260640161020a565b6002546040516001600160a01b038084169216907ff36cf3b7f3187ed5217f19ea5137ed68a98983b4d678c78eb886fc378d2c13cf90600090a3600280546001600160a01b0319166001600160a01b0392909216919091179055565b610970610a15565b60008160010b136109945760405163013840ad60e51b815260040160405180910390fd5b61099f600282610f75565b60010b156109c05760405163013840ad60e51b815260040160405180910390fd5b600181810b600081815260036020908152604091829020805460ff1916909417909355519081527f67e6523b8c5aa3168b20abe444452c339d9ddb30b75275c202d6b25a5fd9ce31910160405180910390a150565b6000546001600160a01b03163314610a5d5760405162461bcd60e51b815260206004820152600b60248201526a4f776e65724f6e6c79282960a81b604482015260640161020a565b565b6001546001600160a01b03163314610a5d5760405162461bcd60e51b815260206004820152600b60248201526a466565546f4f6e6c79282960a81b604482015260640161020a565b600180546001600160a01b038381166001600160a01b0319831681179093556040519116919082907f5327f96e1b66776c2f90adb141c8f65efa8dd259adb405009213276527cbf69a90600090a35050565b600080546001600160a01b038381166001600160a01b0319831681178455604051919092169283917f5327f96e1b66776c2f90adb141c8f65efa8dd259adb405009213276527cbf69a9190a35050565b60008083601f840112610b5b57600080fd5b50813567ffffffffffffffff811115610b7357600080fd5b6020830191508360208260051b8501011115610b8e57600080fd5b9250929050565b60008060208385031215610ba857600080fd5b823567ffffffffffffffff811115610bbf57600080fd5b610bcb85828601610b49565b90969095509350505050565b6000806000806000806000806080898b031215610bf357600080fd5b883567ffffffffffffffff80821115610c0b57600080fd5b610c178c838d01610b49565b909a50985060208b0135915080821115610c3057600080fd5b610c3c8c838d01610b49565b909850965060408b0135915080821115610c5557600080fd5b610c618c838d01610b49565b909650945060608b0135915080821115610c7a57600080fd5b50610c878b828c01610b49565b999c989b5096995094979396929594505050565b80356001600160a01b0381168114610cb257600080fd5b919050565b600060208284031215610cc957600080fd5b610cd282610c9b565b9392505050565b600060208284031215610ceb57600080fd5b81358060010b8114610cd257600080fd5b634e487b7160e01b600052604160045260246000fd5b634e487b7160e01b600052603260045260246000fd5b80516001600160801b0381168114610cb257600080fd5b60008060408385031215610d5257600080fd5b610d5b83610d28565b9150610d6960208401610d28565b90509250929050565b8183526000602080850194508260005b85811015610dae576001600160a01b03610d9b83610c9b565b1687529582019590820190600101610d82565b509495945050505050565b600081518084526020808501945080840160005b83811015610dae5781516001600160801b031687529582019590820190600101610dcd565b606081526000610e06606083018688610d72565b8281036020840152610e188186610db9565b90508281036040840152610e2c8185610db9565b979650505050505050565b803561ffff81168114610cb257600080fd5b600060208284031215610e5b57600080fd5b610cd282610e37565b80358015158114610cb257600080fd5b600060208284031215610e8657600080fd5b610cd282610e64565b8183526000602080850194508260005b85811015610dae5761ffff610eb383610e37565b1687529582019590820190600101610e9f565b60c081526000610eda60c083018c8e610d72565b602083820381850152610eee828c8e610e8f565b91508382036040850152610f03828a8c610e8f565b8481036060860152878152889250810160005b88811015610f3b57610f2784610e64565b151582529282019290820190600101610f16565b508481036080860152610f4e8188610db9565b9250505082810360a0840152610f648185610db9565b9d9c50505050505050505050505050565b60008260010b80610f9657634e487b7160e01b600052601260045260246000fd5b808360010b079150509291505056fea264697066735822122023f3bc047a2063c65edacf9345ebe9b0566431ce68c893723dd5ad82001c603b64736f6c634300080d003367e6523b8c5aa3168b20abe444452c339d9ddb30b75275c202d6b25a5fd9ce31",
  "linkReferences": {},
  "deployedLinkReferences": {}
}